S01700004763634170706C69636174696F6E312E737265635B
S113000045C0000061C000005FC000005DC000008A
S11300105BC0000059C0000057C0000055C000007C
S113002053C0000051C000004FC000004DC000008C
S11300304BC0000049C0000047C0000045C000009C
S1130040AFC0000041C000008CC000003DC00000F3
S11300503BC0000039C0000037C0000035C00000BC
S113006033C0000031C000002FC000002DC00000CC
S11300702BC0000029C0000027C0000025C00000DC
S113008023C0000021C000001FC0000011241FBEB7
S1130090CFEFD0E1DEBFCDBF11E0A0E0B1E0EAEAEE
S11300A0F4E100E00BBF02C007900D92A632B10745
S11300B0D9F722E0A6E2B1E001C01D92A139B2074E
S11300C0E1F710D50C94530A9BCF2CB53DB5232BE7
S11300D0E1F325E535E545E051E40E948B0920E094
S11300E030E048E453E460D70E94A408673881E014
S11300F0780734F46A3071052CF46AE070E002C0C9
S113010066E871E0CB0108969093850080938400A3
S11301109BBD8ABD68507109709387006093860007
S113012079BD68BD0895CF9318BA88E832D783E4BF
S113013030D7C1E0C8BB18BA80E92BD780E029D7F3
S1130140C8BB18BA80E225D7C8BBCF91089597B130
S1130150907F890F87B9369A349BFECF84B195B1CD
S113016008951F920F920FB60F9211240BB60F929F
S11301708F93EF93FF93E091500281E08E0F809371
S11301805002F0E08CB1EA5CFE4F8083FF91EF9166
S11301908F910F900BBE0F900FBE0F901F9018956C
S11301A01F920F920FB60F9211240BB60F924F921B
S11301B05F926F927F928F929F92AF92BF92CF92F3
S11301C0DF92EF92FF922F933F934F935F936F933E
S11301D07F938F939F93AF93BF93CF93EF93FF93AB
S11301E083E882BFC1E0C5BB80E0B1DFBC01990FE9
S11301F0880B990BDCD7609373027093740280931D
S113020075029093760218BA88EEC3D6C8BB18BAA2
S113021088E6BFD6C3D6C82ED12CE12CF12CFE2CF7
S1130220ED2CDC2CCC24BAD6C82AFE2CED2CDC2CEC
S1130230CC24B4D6C82AFE2CED2CDC2CCC24AED68F
S1130240C8BBC82AF094E094D094C094C11CD11CBB
S1130250E11CF11CC0927F02D0928002E0928102E4
S1130260F092820283E085BB60917F0270918002EC
S113027080918102909182029AD720E030E042EA94
S113028058E4FAD69B01AC018FD62BED3FE049E44C
S113029050E40E948B0960938402709385028093DA
S11302A08602909387029091720289E2989F812D31
S11302B0112482958F7024E6829F90191124911144
S11302C0C6C01092720260912A0170912B01809134
S11302D02C0190912D0120E030E0A901C9D688239A
S11302E044F480912A0190912B01A0912C01B091AA
S11302F02D0160912A0170912B0180912C01909124
S11303002D01209184023091850240918602509102
S1130310870249D66093360270933702809338027D
S113032090933902609136027091370280913802BD
S11303309091390220916A0230916B0240916C02D3
S113034050916D0230D660935102709352028093A3
S11303505302909354026091360270913702809157
S11303603802909139022091140130911501409185
S11303701601509117018090510290905202A09062
S11303805302B090540240901001509011016090BB
S1130390120170901301BFD76B017C01A30192017C
S11303A0C501B401B8D79B01AC01C701B601FCD5A6
S11303B060937702709378028093790290937A0223
S11303C060917702709178028091790290917A021B
S11303D02DEE32EE4DEF50E49AD718166CF48DEEF4
S11303E092EEADEFB0E48093770290937802A093FD
S11303F07902B0937A021BC06091770270917802FF
S11304008091790290917A022DEE32EE4DEF50EC0C
S11304102FD6882364F48DEE92EEADEFB0EC80938A
S1130420770290937802A0937902B0937A02809134
S1130430360290913702A0913802B091390280932C
S11304406A0290936B02A0936C02B0936D022091A8
S113045072028DEC289F812D1124869586958695B0
S1130460880F982F990F990F890F28137AC16091DB
S11304707702709178028091790290917A022091AA
S11304801D0130911E0140911F01509120013FD761
S113049018168CF480911D0190911E01A0911F01EA
S11304A0B09120018093770290937802A09379020F
S11304B0B0937A0227C080911D0190911E01A091F2
S11304C01F01B09120012091770230917802409170
S11304D0790250917A02BC01CD01905818D71816B0
S11304E08CF480911D0190911E01A0911F01B09187
S11304F02001B0588093770290937802A0937902F8
S1130500B0937A028091770290917802A091790257
S1130510B0917A028093210190932201A093230148
S1130520B0932401609184027091850280918602C7
S113053090918702209188023091890240918A0229
S113054050918B0230D52AE037ED43EA5BE394D532
S113055060932E0170932F018093300190933101A9
S11305608091840290918502A0918602B0918702C5
S11305708093880290938902A0938A02B0938B029D
S113058060912101709122018091230190912401B5
S113059020912E0130912F01409130015091310171
S11305A002D560937B0270937C0280937D029093CA
S11305B07E0280907B0290907C02A0907D02B0909D
S11305C07E0240900C0150900D0160900E017090DD
S11305D00F0160914C0270914D0280914E029091F6
S11305E04F02209108013091090140910A01509174
S11305F00B0191D62AE037ED43EA5BE38CD66B011D
S11306007C01A3019201C501B40185D69B01AC0113
S1130610C701B601C9D460936E0270936F028093D0
S113062070029093710260917B0270917C028091C0
S11306307D0290917E0220914C0230914D024091B6
S11306404E0250914F02B0D460934C0270934D020D
S113065080934E0290934F0260916E0270916F02EC
S1130660809170029091710228EB3EE145E050E4E4
S11306704ED61816A4F560916E0270916F028091A7
S1130680700290917102C0904C02D0904D02E090A3
S11306904E02F0904F0228EB3EE145E050E483D453
S11306A020ED34E440E250E4E7D49B01AC01C701FF
S11306B0B60179D460934C0270934D0280934E023C
S11306C090934F0288EB9EE1A5E0B0E480936E0224
S11306D090936F02A0937002B093710242C0609134
S11306E06E0270916F02809170029091710228EBFA
S11306F03EE145E050ECBCD488239CF560916E0249
S113070070916F028091700290917102C0904C02BE
S1130710D0904D02E0904E02F0904F0228EB3EE163
S113072045E050E441D420ED34E440E250E4A4D464
S11307309B01AC01C701B60136D460934C0270939F
S11307404D0280934E0290934F0288EB9EE1A5E008
S1130750B0EC80936E0290936F02A0937002B093FA
S11307607102809172028F5F8093720280916E0297
S113077090916F02A0917002B0917102B058809371
S1130780480290934902A0934A02B0934B026091AD
S113079048027091490280914A0290914B02209143
S11307A0190130911A0140911B0150911C01AFD5E0
S11307B018168CF48091190190911A01A0911B01D3
S11307C0B0911C018093480290934902A0934A027D
S11307D0B0934B0227C08091190190911A01A09106
S11307E01B01B0911C0120914802309149024091B3
S11307F04A0250914B02BC01CD01905888D518167D
S11308008CF48091190190911A01A0911B01B0916F
S11308101C01B0588093480290934902A0934A0265
S1130820B0934B02609173027091740280917502CF
S11308309091760220E030E040E85AE36CD520E065
S113084030E040EA50E467D524E63BE34FE150E46E
S1130850AAD32AE037ED43EA5BE3A6D320E030E0F5
S113086040E251E458D5DC01CB01B05880934402F6
S113087090934502A0934602B093470260914802C8
S11308807091490280914A0290914B022091440256
S113089030914502409146025091470284D36093BF
S11308A03A0270933B0280933C0290933D02809005
S11308B03A0290903B02A0903C02B0903D024090DE
S11308C00401509005016090060170900701609149
S11308D08C0270918D0280918E0290918F022091F2
S11308E0000130910101409102015091030113D59F
S11308F02FE632E143E05AE30ED56B017C01A301FC
S11309009201C501B40107D59B01AC01C701B60131
S11309104BD31AD4709327016093260160912E0162
S113092070912F018091300190913101E090260166
S1130930F09027012FED30EE4BE85DE3ECD44B0152
S11309405C01B701FF0C880B990B31D49B01AC01FE
S1130950C501B40129D3F8D370932701609326010C
S113096060913A0270913B0280913C0290913D0269
S113097020918C0230918D0240918E0250918F0211
S113098013D360938C0270938D0280938E029093A4
S11309908F0280912601909127014897ACF16091D4
S11309A02601709127018090040190900501A09088
S11309B00601B0900701C0908C02D0908D02E090A7
S11309C08E02F0908F02072E000C880B990BEFD348
S11309D020E030E040EC51E4E6D2A50194014CD390
S11309E09B01AC01C701B601DED260938C02709307
S11309F08D0280938E0290938F0288E190E0909311
S1130A002701809326013BC0809126019091270104
S1130A10883E9F4FA4F56091260170912701809034
S1130A20040190900501A0900601B0900701C090C8
S1130A308C02D0908D02E0908E02F0908F02072EEF
S1130A40000C880B990BB3D320E030E040EC51E468
S1130A50ABD2A501940110D39B01AC01C701B6012F
S1130A60A2D260938C0270938D0280938E02909335
S1130A708F0288EE9FEF9093270180932601609167
S1130A80260170912701072E000C880B990B8FD338
S1130A901CDB8091280190912901019690932901F2
S1130AA080932801FF91EF91CF91BF91AF919F91D6
S1130AB08F917F916F915F914F913F912F91FF9013
S1130AC0EF90DF90CF90BF90AF909F908F907F90EA
S1130AD06F905F904F900F900BBE0F900FBE0F90D2
S1130AE01F901895CF93DF93CDB7DEB764970FB6F9
S1130AF0F894DEBF0FBECDBF8EEF8C838B838A83C9
S1130B00898355D19BD1A3D1B2D15ED162D174D1A5
S1130B1010928900109288001DBC1CBC60E070E03B
S1130B20CB01D3DA86D1FFDA83E882BF7894912CA3
S1130B300F2EF4E17F2EF02D0F2EF3E08F2EF02DEB
S1130B406E0185E1C80ED11C0F2EF6E5AF2EF2E042
S1130B50BF2EF02D6894552451F866246394BAC0CE
S1130B60809190028130E1F018F08230E1F1ADC063
S1130B70E0918302F0E0EA5CFE4F80818E3F69F4ED
S1130B80809155028F5F8093550280915502843085
S1130B9009F09BC06092900298C01092550295C0D3
S1130BA0E091550281E08E0F80935502F0E0A09110
S1130BB08302B0E0AA5CBE4F8C91EA5AFD4F808359
S1130BC080915502883009F080C0F50195818091AB
S1130BD01801981303C05092900277C010929002AB
S1130BE01092550272C0E091550281E08E0F8093FD
S1130BF05502F0E0A0918302B0E0AA5CBE4F8C9154
S1130C00EA5AFD4F8083E0918302F0E0EA5CFE4FF4
S1130C108081980EF501948180915502981344C007
S1130C20878198123BC086818230C1F560857185C9
S1130C3082859385BCD220E030E04AE754E41CD29C
S1130C4060932A0170932B0180932C0190932D01C2
S1130C50F5016485758586859785A9D220E030E005
S1130C604AE754E409D260931D0170931E018093F6
S1130C701F0190932001F50160897189828993890C
S1130C8096D220E030E04AE754E4F6D160931901AB
S1130C9070931A0180931B0190931C01109290028F
S1130CA010925502912C11C0F50194818091550246
S1130CB0981720F080915502853138F086E6DCD013
S1130CC01092900210925502912C809183028F5FB2
S1130CD0809383029091830280915002981340CFB5
S1130CE080912801909129014497A4F3109229013D
S1130CF0109228017D82809118018E838F8218863C
S1130D00609184027091850280918602909187029D
S1130D1020E030E04AE754E4FED216D269877A87AD
S1130D208B879C8760912E0170912F0180913001F7
S1130D309091310120E030E04AE754E4ECD204D24F
S1130D406D877E878F87988B6091440270914502EE
S1130D50809146029091470220E030E04AE754E453
S1130D60DAD2F2D1698B7A8B8B8B9C8BFE0139960C
S1130D7081919885890F8887CE16DF06C9F78E0181
S1130D800F5F1F4F7801F70181917F0175D0CE1459
S1130D90DF04C9F7F80181918F0190E079D080E2F6
S1130DA06FD00C151D05B1F78DE06AD093CF8FEF8E
S1130DB08ABB84BB88E081BB87E687BB8AE182B9B2
S1130DC01BBA87E088BB089584E083BF81E087BFB6
S1130DD0089582EE8FBD81E18EBD8FE891E097BDCD
S1130DE086BD10927900109278001BBC1ABC19BC05
S1130DF018BC1DBC1CBC089582EB80938B0081E160
S1130E0080938A008FE891E0909381008093800022
S1130E101092830010928200109287001092860034
S1130E20109285001092840010928900109288001C
S1130E30089580E487B986E886B908951BB888E9DF
S1130E408AB986E08093950087E689B9089581B3CD
S1130E50837F886081BB10929B0088E180939A0015
S1130E6086E080939D0088E080939900089580E552
S1130E708DB981E08EB908955D9BFECF8CB908953C
S1130E80EBE9F0E0908195FFFDCF80939C000895FD
S1130E908F929F92AF92BF92CF92DF92EF92FF9286
S1130EA00F931F93CF93DF93EC0199232CF48DE2DE
S1130EB0E7DFD195C195D1096E010D2E000CEE0826
S1130EC0FF08C701B60120E836E948E950E099D2A5
S1130ED00F2EF0E48F2EF2E49F2EFFE0AF2EB12C04
S1130EE0F02DA50194018DD280E3820FC9DFC701E3
S1130EF0B601A501940185D20F2EF0EA8F2EF6E8F3
S1130F009F2EAA24A394B12CF02DA501940179D28B
S1130F1080E3820FB5DFC701B601A501940171D248
S1130F2020E137E240E050E06CD280E3820FA8DF9A
S1130F30CE0160E177E252D208EE13E0B8014ED25E
S1130F4080E3860F9DDFCE01B80148D204E610E0AD
S1130F50B80144D280E3860F93DFCE01B8013ED2BC
S1130F600AE010E0B8013AD280E3860F89DFCE01AF
S1130F70B80134D2805D84DFDF91CF911F910F914E
S1130F80FF90EF90DF90CF90BF90AF909F908F90A5
S1130F9008958FB9779BFECF8FB108951FB8779BC3
S1130FA0FECF8FB108955058BB27AA270ED075C124
S1130FB066D130F06BD120F031F49F3F11F41EF470
S1130FC05BC10EF4E095E7FB51C1E92F77D180F3C3
S1130FD0BA17620773078407950718F071F49EF532
S1130FE08FC10EF4E0950B2EBA2FA02D0B01B90181
S1130FF090010C01CA01A0011124FF27591B99F08B
S1131000593F50F4503E68F11A16F040A22F232F96
S1131010342F4427585FF3CF469537952795A795E6
S1131020F0405395C9F77EF41F16BA0B620B730B8D
S1131030840BBAF09150A1F0FF0FBB1F661F771FFE
S1131040881FC2F70EC0BA0F621F731F841F48F4B3
S1131050879577956795B795F7959E3F08F0B3CF39
S11310609395880F08F09927EE0F97958795089523
S1131070D9D008F481E008950CD00FC107D140F015
S1131080FED030F021F45F3F19F0F0C0511139C1A6
S1131090F3C014D198F39923C9F35523B1F3951BE5
S11310A0550BBB27AA2762177307840738F09F5F85
S11310B05F4F220F331F441FAA1FA9F333D00E2EF4
S11310C03AF0E0E830D091505040E695001CCAF761
S11310D029D0FE2F27D0660F771F881FBB1F261726
S11310E037074807AB07B0E809F0BB0B802DBF01F9
S11310F0FF2793585F4F2AF09E3F510568F0B6C012
S113110000C15F3FECF3983EDCF3869577956795D5
S1131110B795F7959F5FC9F7880F911D96958795A9
S113112097F90895E1E0660F771F881FBB1F6217C8
S113113073078407BA0720F0621B730B840BBA0B86
S1131140EE1F88F7E095089504D06894B111D9C0D2
S11311500895BCD088F09F5790F0B92F9927B751C4
S1131160A0F0D1F0660F771F881F991F1AF0BA9567
S1131170C9F712C0B13081F0C3D0B1E00895C0C046
S1131180672F782F8827B85F39F0B93FCCF386955D
S113119077956795B395D9F73EF4909580957095BA
S11311A061957F4F8F4F9F4F0895E89409C097FB37
S11311B03EF490958095709561957F4F8F4F9F4F2A
S11311C09923A9F0F92F96E9BB279395F69587956E
S11311D077956795B795F111F8CFFAF4BB0F11F431
S11311E060FF1BC06F5F7F4F8F4F9F4F16C08823D8
S11311F011F096E911C0772321F09EE8872F762F0E
S113120005C0662371F096E8862F70E060E02AF04E
S11312109A95660F771F881FDAF7880F969587953A
S113122097F90895990F0008550FAA0BE0E8FEEF0F
S113123016161706E807F907C0F012161306E40796
S1131240F50798F0621B730B840B950B39F40A268F
S113125061F0232B242B252B21F408950A2609F46D
S1131260A140A6958FEF811D811D089597F99F6771
S113127080E870E060E008959FEF80EC089500241A
S11312800A941616170618060906089500240A94E7
S113129012161306140605060895092E0394000C6D
S11312A011F4882352F0BB0F40F4BF2B11F460FFFC
S11312B004C06F5F7F4F8F4F9F4F089557FD905825
S11312C0440F551F59F05F3F71F04795880F97FB06
S11312D0991F61F09F3F79F08795089512161306C0
S11312E01406551FF2CF4695F1DF08C016161706EF
S11312F01806991FF1CF8695710561050894089524
S1131300E894BB2766277727CB0197F908958ADFEE
S113131008F48FEF08950BD0C0CFB1DF28F0B6DF0B
S113132018F0952309F0A2CFA7CF1124EACFC6DF86
S1131330A0F3959FD1F3950F50E0551F629FF001E4
S1131340729FBB27F00DB11D639FAA27F00DB11D3D
S1131350AA1F649F6627B00DA11D661F829F2227C6
S1131360B00DA11D621F739FB00DA11D621F839F4D
S1131370A00D611D221F749F3327A00D611D231F23
S1131380849F600D211D822F762F6A2F11249F5771
S113139050408AF0E1F088234AF0EE0FFF1FBB1F94
S11313A0661F771F881F91505040A9F79E3F510533
S11313B070F05CCFA6CF5F3FECF3983EDCF38695EC
S11313C077956795B795F795E7959F5FC1F7FE2BDE
S11313D0880F911D9695879597F9089597FB072E89
S11313E016F4009406D077FD08D027D007FC05D06A
S11313F03EF4909581959F4F0895709561957F4F28
S11314000895052E97FB16F400940FD057FD05D0D0
S113141028D007FC02D046F408C05095409530957A
S113142021953F4F4F4F5F4F08959095809570954C
S113143061957F4F8F4F9F4F0895AA1BBB1B51E1AE
S113144007C0AA1FBB1FA617B70710F0A61BB70B30
S1131450881F991F5A95A9F780959095BC01CD01D5
S11314600895A1E21A2EAA1BBB1BFD010DC0AA1FE1
S1131470BB1FEE1FFF1FA217B307E407F50720F0F9
S1131480A21BB30BE40BF50B661F771F881F991F74
S11314901A9469F760957095809590959B01AC01BD
S10D14A0BD01CF010895F894FFCFB9
S11314AA333B0A458EAD533FF2A33A42A089C03F6B
S11314BA9A99193E0000904001CDCCCC3D00002001
S10914CA41CDCC4C3E00B4
S9030000FC
